:10000000020058898288838B00EC4D6036E4E0F66C
:1000100008A31DBDFFF31C80F0B800118B00EC4D50
:100020006021E7F609081DBDFFF41C80F189828874
:10003000838B00EC4D600CE493F608A31DBDFFF329
:100040001C80F022E4F5D075812B78207A0BF6081D
:0B005000DAFC1201090200000200446B
:1001000041424344454647200002022978017900D4
:100110007A007B227D097C0012001975803875A059
:100120000175A00075808075A00175A00075B000F4
:10013000C290209302800280137924878075A003E7
:1001400075A0028000309302800280F92094028022
:100150000280137923878075A00375A00280003088
:100160009402800280F92095028002801379228710
:100170008075A00375A0028000309502800280F98E
:10018000D290C291209302800280137926878075D5
:10019000A00375A0028000309402800280F92095AF
:1001A00002800280137927878075A00375A00280E2
:1001B00000309302800280F920940280028013793B
:1001C00025878075A00375A002800030950280020B
:1001D00080F9D291C2922093028002801275800130
:1001E00075A00175A0008000309302800280F92084
:1001F0009402800280137929878075A00375A0027C
:100200008000309402800280F920950280028013E1
:100210007928878075A00375A00280003095028040
:0C0220000280F9D2920201302202010C8F
:00000001FF
