:100000000201750200FA8C268D278C288D29E523A4
:10001000452270028002805DE52945286002800249
:100020008011E52924FFF529E52834FFF52875908E
:10003000008039792187900525E52570020524E5A2
:100040002524FCE5246480347F50028002801DE476
:10005000F524F5250521E52170020520E521B4FFF1
:1000600007E520B4000280028002800730CF0280C2
:100070000280A58069E523B40107E522B40002806F
:1000800002805BE5294528600280028011E5292471
:10009000FFF529E52834FFF528759000803979218E
:1000A00087900525E52570020524E52524FBE52438
:1000B0006480347F50028002801DE4F524F525051C
:1000C00021E52170020520E521B4FF07E520B400F9
:1000D0000280028002800730CF02800280A5C2CF5A
:1000E0003080028002800675220075230130810273
:1000F00080028005E4F522F523220200068060E4F8
:10010000F522F523E4F520F5217590FE75CB2975D0
:10011000CA2853C8FCD2ADD2AFD2CAE523B4010776
:10012000E522B40002800280097C037D8412000372
:1001300080077C047DB0120003E4F520F521E4F58E
:1001400024F5253080028002800675220075230187
:1001500030810280028005E4F522F52380BD2280F3
:100160009EE4F5D075812A78207A0AF608DAFC1226
:0801700000FD02000002016124
:00000001FF
